:020000040000FA
:100000000C94C0030C94E8030C94E8030C94E803EC
:100010000C94E8030C94E8030C94E8030C94E803B4
:100020000C94E8030C94E8030C94E8030C94E803A4
:100030000C94E8030C94E8030C94E8030C94E80394
:100040000C9498060C94E8030C9408070C94E206B0
:100050000C94E8030C94E8030C94E8030C94E80374
:100060000C94E8030C94E80300000000240027002F
:100070002A00547970652048454C5020746F2073D5
:10008000656520636F6D6D616E64732E00537973C7
:1000900074656D2072656164792E003D3D3D204E92
:1000A000616E6F4C6F636B2076312E302046494E67
:1000B000414C203D3D3D00554E4B4E4F574E204349
:1000C0004F4D4D414E44003D3D3D3D3D3D3D3D3D4F
:1000D0003D3D3D3D3D3D3D3D3D3D3D3D3D3D3D3D50
:1000E0003D3D3D0048494444454E5F434F4D4D41E1
:1000F0004E445F323A204D41494E545F4F50454E79
:100100000048494444454E5F434F4D4D414E445F86
:10011000313A20534552564943455F4F50454E00B2
:100120004D41494E54454E414E43455F4B45593A2A
:10013000200052454D4F54455F544F4B454E3A2099
:1001400000454550524F4D5F50494E5F4144445227
:100150004553533A2000434F4D50494C45445F545A
:10016000494D453A2000434F4D50494C45445F446A
:100170004154453A20004255494C445F5441473A66
:10018000200056455253494F4E3A20004D4F4445AA
:100190004C3A20003D3D3D20494E5445524E414C85
:1001A00020454E47494E454552494E47203D3D3D2D
:1001B000003D3D3D3D3D3D3D3D3D3D3D3D3D3D3DAC
:1001C0003D3D3D3D3D3D0052454D4F54455F5245FF
:1001D000504C41595F50524F54454354494F4E3A49
:1001E0002044495341424C45440052454D4F5445EB
:1001F0005F544F4B454E3A20004C4F47494E5F5697
:10020000414C49444154494F4E3A2061746F69282A
:100210002900464143544F52595F52455345545F5C
:10022000415554483A2044495341424C45440053B7
:10023000455353494F4E5F54494D454F55543A200D
:1002400044495341424C454400415554485F524152
:1002500054455F4C494D49543A2044495341424C1E
:1002600045440050494E5F53544F524147453A2050
:10027000454550524F4D20504C41494E54455854DD
:100280000041444D494E5F50494E3A200046495284
:100290004D574152453A20004445564943453A207E
:1002A000003D3D3D2044455649434520434F4E4681
:1002B0004947203D3D3D0044454255472044495370
:1002C00041424C454400444542554720454E414239
:1002D0004C4544003D3D3D3D3D3D3D3D3D3D3D3D6D
:1002E0003D3D3D3D3D3D00434F4F4C444F574E3A01
:1002F000204E4F4E45004C4F434B4F55543A204EE5
:100300004F4E4500524154455F4C494D49543A20A7
:100310004E4F4E45005355434345535346554C5F4E
:100320004C4F47494E533A20004641494C45445FA3
:10033000415454454D5054533A20003D3D3D2041D9
:10034000555448205354415453203D3D3D003D3DBC
:100350003D3D3D3D3D3D3D3D3D3D3D3D3D3D3D3DCD
:100360003D3D0053455353494F4E5F455850495208
:100370004154494F4E3A204E4F4E4500534553533A
:10038000494F4E5F54494D454F55543A20444953C7
:1003900041424C45440053455353494F4E5F4147FA
:1003A000455F5345434F4E44533A20004E4F00594A
:1003B00045530041555448454E54494341544544E2
:1003C0003A20003D3D3D2053455353494F4E20496F
:1003D0004E464F203D3D3D00444556494345205043
:1003E000494E3A20313233340044454641554C544D
:1003F0002050494E20524553544F524544004641E7
:1004000043544F525920524553455420434F4D5069
:100410004C4554450050494E204348414E474544C1
:100420000050494E206D75737420626520657861B7
:1004300063746C792034206469676974732E004991
:100440004E56414C49442050494E00415554482095
:100450005245515549524544004C4F474745442069
:100460004F5554004C4F434B20434C4F5345440091
:1004700041555448205245515549524544003D3D4F
:100480003D3D3D3D3D3D3D3D3D3D3D3D3D3D3D3D9C
:100490003D3D3D3D3D005245504C41595F50524F0E
:1004A00054454354494F4E3A2044495341424C45E8
:1004B000440054494D455354414D503A204E4F4EFF
:1004C000450053455155454E43455F4E554D4245B8
:1004D000523A204E4F4E45004E4F4E43453A204E25
:1004E0004F4E4500544F4B454E5F545950453A20AE
:1004F0005354415449430041434345505445445F9C
:1005000052454D4F54455F4F50454E3A20003D3DBA
:100510003D2052454D4F54452050524F544F434F6C
:100520004C203D3D3D0052454D4F5445204C4F43DE
:100530004B204F50454E45440052454D4F544520A9
:1005400041555448204F4B0052454D4F5445204192
:10055000555448204641494C4544004C4F434B209C
:100560004F50454E4544004D41494E54454E414E35
:1005700043452041555448204F4B004D41494E546E
:10058000454E414E43452041555448204641494C33
:100590004544004C4F434B204F50454E454400537B
:1005A000455256494345204F56455252494445000D
:1005B0004C4F434B204F50454E4544004155544805
:1005C000205245515549524544004C4F47494E2011
:1005D0004641494C4544004C4F47494E204F4B0043
:1005E0005B44454255475D205061727365642050FD
:1005F000494E2076616C75653A20005B4445425552
:10060000475D20526177206C6F67696E20696E705C
:1006100075743A20004F4646004F4E004E4F005929
:1006200045530044454255473A2000434C4F5345FB
:1006300044004F50454E00415554483A20004C4F1D
:10064000434B3A2000202052454D4F54455F5354B0
:1006500041545300202052454D4F54455F4F504563
:100660004E203C544F4B454E3E00202046414354C3
:100670004F52595F52455345540020205345535320
:10068000494F4E5F494E464F002020415554485F28
:10069000535441545300202053484F575F434F4E0B
:1006A0004649470020204445425547204F464600D2
:1006B00020204445425547204F4E002020434841CA
:1006C0004E47455F50494E203C4E45575F50494E7E
:1006D0003E0020204C4F474F5554002020434C4FA4
:1006E00053450020204F50454E0020204C4F474995
:1006F0004E203C50494E3E00202053544154555307
:1007000000202048454C5000417661696C61626C64
:100710006520636F6D6D616E64733A005B444542A2
:1007200055475D20526563656976656420636F6D2A
:100730006D616E643A200000000000250028002B47
:10074000000404040404040404020202020202037A
:100750000303030303010204081020408001020484
:100760000810200102040810200000000800020107
:100770000000030407000000000000000000310C2E
:1007800011241FBECFEFD8E0DEBFCDBF23E0A6E22D
:10079000B2E001C01D92A431B207E1F712E0A0E07F
:1007A000B1E0E4ECF9E102C005900D92A632B10788
:1007B000D9F713E0C0ECD3E004C02197FE010E94FA
:1007C000BC0CCF3BD107C9F70E943A070C94E00C50
:1007D0000C940000E6E7F7E02491E2E6F7E094915C
:1007E000EEE4F7E0E491EE23C9F0222339F0233060
:1007F00001F1A8F4213019F1223029F1F0E0EE0FD7
:10080000FF1FE95CF84FA591B4912FB7F894EC91D4
:10081000811126C090959E239C932FBF0895273069
:10082000A9F02830C9F0243049F7209180002F7DAD
:1008300003C0209180002F7720938000DFCF24B564
:100840002F7724BDDBCF24B52F7DFBCF2091B000C7
:100850002F772093B000D2CF2091B0002F7DF9CF19
:100860009E2BDACF3FB7F894809173029091740277
:10087000A0917502B091760226B5A89B05C02F3FC6
:1008800019F00196A11DB11D3FBFBA2FA92F982FB6
:100890008827BC01CD01620F711D811D911D42E0B1
:1008A000660F771F881F991F4A95D1F70895AF9259
:1008B000BF92CF92DF92EF92FF920F931F93CF934D
:1008C000DF936C017B018B01040F151FEB015E01AF
:1008D000AE18BF08C017D10759F06991D601ED9144
:1008E000FC910190F081E02DC6010995892B79F7E3
:1008F000C501DF91CF911F910F91FF90EF90DF9095
:10090000CF90BF90AF900895FC01538D448D252F5B
:1009100030E0842F90E0821B930B541710F0CF9699
:10092000089501970895FC01918D828D981761F0CB
:10093000A28DAE0FBF2FB11D5D968C91928D9F5FE2
:100940009F73928F90E008958FEF9FEF0895FC01C1
:10095000918D828D981731F0828DE80FF11D858D74
:1009600090E008958FEF9FEF0895FC01918D228D07
:10097000892F90E0805C9F4F821B91098F7399278C
:10098000089587E792E00E94B50421E0892B09F4DD
:1009900020E0822F089580E090E0892B29F00E94CA
:1009A000C10481110C9400000895FC01A48DA80FCE
:1009B000B92FB11DA35ABF4F2C91848D90E00196A1
:1009C0008F739927848FA689B7892C93A089B189C1
:1009D0008C91837080648C93938D848D981306C062
:1009E0000288F389E02D80818F7D80830895EF92C6
:1009F000FF920F931F93CF93DF93EC0181E0888FD9
:100A00009B8D8C8D98131AC0E889F989808185FFA8
:100A100015C09FB7F894EE89FF896083E889F9894A
:100A200080818370806480839FBF81E090E0DF914C
:100A3000CF911F910F91FF90EF900895F62E0B8D9F
:100A400010E00F5F1F4F0F731127E02E8C8D8E115A
:100A50000CC00FB607FCFACFE889F989808185FFC1
:100A6000F5CFCE010E94D504F1CFEB8DEC0FFD2F19
:100A7000F11DE35AFF4FF0829FB7F8940B8FEA897C
:100A8000FB8980818062CFCF0F931F93CF93DF9339
:100A90008C01D0E0C0E0F801EC0FFD1F64916623EB
:100AA00041F087E792E00E94F704892B11F021962C
:100AB000F2CFCE01DF91CF911F910F910895CF9387
:100AC000DF93EC01888D8823B9F0AA89BB89E88976
:100AD000F9898C9185FD03C0808186FD0DC00FB61C
:100AE00007FCF7CF8C9185FFF2CF808185FFEDCF9A
:100AF000CE010E94D504E9CFDF91CF91089581E026
:100B000080933C020C94EA03FC0101900020E9F779
:100B10003197AF01481B590BBC0187E792E00C9459
:100B2000570489E591E00C948405CF93DF930E94EC
:100B30004405EC010E9491058C0F9D1FDF91CF9120
:100B400008958F929F92AF92BF920F931F93CF936E
:100B5000DF93CDB7DEB7A1970FB6F894DEBF0FBE17
:100B6000CDBF19A2423008F44AE08E010F5D1F4F3D
:100B7000842E912CB12CA12CA50194010E949A0CD9
:100B8000E62FB901CA01EA30F4F4E05DD801EE9332
:100B90008D01232B242B252B79F790E080E01097F3
:100BA00019F0CD010E948405A1960FB6F894DEBF1E
:100BB0000FBECDBFDF91CF911F910F91BF90AF902E
:100BC0009F908F900895E95CE1CFCF93DF93D0E0C1
:100BD000C0E0009719F00E948405EC010E94910585
:100BE0008C0F9D1FDF91CF910895FC010190002093
:100BF000E9F79F01255031092817390769F4FC01ED
:100C00009C012C5F3F4F819180538A3028F4E2177A
:100C1000F307C9F781E0089580E00895CF92DF924D
:100C2000EF92FF92CF93DF936C01990FEE08FF08CC
:100C3000F7FE1DC06DE287E792E00E94F704EC0129
:100C400066277727CB016C197D098E099F094AE039
:100C50000E94A105C80FD91F0E9491058C0F9D1FEE
:100C6000DF91CF91FF90EF90DF90CF9008954AE011
:100C7000C701B6010E94A105EC01EECFCF93DF932F
:100C80004AE00E94A105EC010E9491058C0F9D1F76
:100C9000DF91CF910895FF920F931F93CF93DF932E
:100CA000EC01F62E08811981C8010E94840CF81607
:100CB00021F06F2DC8010E948C0CCE01DF91CF91E5
:100CC0001F910F91FF900895EF92FF920F931F9342
:100CD000CF93DF9300D0CDB7DEB786E3E82E82E076
:100CE000F82E01E010E0F70161917F011A8309837A
:100CF000CE0101960E944B060F5F1F4F0530110574
:100D000091F71A83098360E0CE0101960E944B0699
:100D10001A82198265EACE0101960E944B060F9055
:100D20000F90DF91CF911F910F91FF90EF90089559
:100D30001F920F920FB60F9211242F933F938F9310
:100D40009F93AF93BF9380916F0290917002A09197
:100D50007102B091720230916E0223E0230F2D37A1
:100D600058F50196A11DB11D20936E0280936F026C
:100D700090937002A0937102B093720280917302FB
:100D800090917402A0917502B09176020196A11D16
:100D9000B11D8093730290937402A0937502B09377
:100DA0007602BF91AF919F918F913F912F910F90BC
:100DB0000FBE0F901F90189526E8230F0296A11DD5
:100DC000B11DD2CF1F920F920FB60F9211242F9305
:100DD0003F934F935F936F937F938F939F93AF93C3
:100DE000BF93EF93FF9387E792E00E94D504FF91B2
:100DF000EF91BF91AF919F918F917F916F915F9193
:100E00004F913F912F910F900FBE0F901F9018950B
:100E10001F920F920FB60F9211242F938F939F93CF
:100E2000EF93FF93E0918702F09188028081E09137
:100E30008D02F0918E0282FD1BC090818091900204
:100E40008F5F8F7320919102821741F0E0919002A1
:100E5000F0E0E958FD4F958F80939002FF91EF915C
:100E60009F918F912F910F900FBE0F901F9018950B
:100E70008081F4CFCF93DF9300D0CDB7DEB77894E5
:100E800084B5826084BD84B5816084BD85B582608F
:100E900085BD85B5816085BD80916E008160809340
:100EA0006E001092810080918100826080938100A9
:100EB00080918100816080938100809180008160B9
:100EC000809380008091B10084608093B100809114
:100ED000B00081608093B00080917A00846080933C
:100EE0007A0080917A00826080937A0080917A0003
:100EF000816080937A0080917A00806880937A0084
:100F00001092C100E2E6F7E02491EEE4F7E084916C
:100F1000882399F090E0880F991FFC01E859FF4F52
:100F2000A591B491FC01E95CF84F859194918FB73C
:100F3000F894EC91E22BEC938FBF80E00E94EA03DF
:100F4000E0918702F091880282E08083E091830241
:100F5000F09184021082E0918502F09186028FEC7C
:100F6000808310928F02E0918B02F0918C0286E0D8
:100F70008083E0918902F0918A0280818061808380
:100F8000E0918902F0918A02808188608083E091FB
:100F90008902F0918A02808180688083E0918902D1
:100FA000F0918A0280818F7D80830E9432044B0100
:100FB0005C0154EFC52EDD24D394E12CF12C0E946A
:100FC0003204681979098A099B09683E73408105D2
:100FD0009105A8F321E0C21AD108E108F10888EED2
:100FE000880E83E0981EA11CB11CC114D104E10439
:100FF000F10429F790E080E00E94840C46E3E42E9F
:1010000042E0F42E01E010E0853A09F48CC063E47C
:1010100071E086E392E00E94CB0C0E9464061A8283
:10102000198265EACE0101960E944B060E94910545
:101030008BE990E00E9495058DE890E00E9495056F
:1010400082E790E00E9495050E9491052EE3E22E32
:1010500022E0F22E38EE832E33E0932EA12CB12C19
:1010600090E0692E90E0792E87E792E00E94B50427
:10107000181619060CF0CDC08EE3C82E82E0D82ECB
:1010800010E000E02FB7F89480916F029091700209
:10109000A0917102B09172022FBF80937F02909352
:1010A0008002A0938102B093820287E792E00E94BF
:1010B000930497FFC8C32FB7F89480916F02909163
:1010C0007002A0917102B09172022FBF40917F0215
:1010D000509180026091810270918202841B950B75
:1010E000A60BB70B40917B0250917C0260917D0270
:1010F00070917E0284179507A607B707B0F2F80132
:10110000E25CFD4F1082F70101900020E9F7319772
:10111000EE16FF0621F18291803219F08B7F893023
:10112000F1F41082F5CFC8010E94840CF70181937D
:101130007F010F5F1F4F05301105A9F710923A028A
:1011400086E392E00E94F505811170CF63E471E0BF
:1011500086E392E00E94CB0C0E94640667CF8091E8
:101160003E02882309F455C080913D02882341F056
:101170008CE197E00E9444058EE392E00E94E50531
:101180006CE571E08EE392E00E94C20C892B09F0BD
:101190004CC088E097E00E94950581E097E00E94AE
:1011A000950588EF96E00E9495058AEE96E00E94EC
:1011B000950583EE96E00E9495058BED96E00E94E2
:1011C000950582ED96E00E9495058BEB96E00E94D6
:1011D000950580EB96E00E94950584EA96E00E94D2
:1011E000950586E996E00E94950589E896E00E94BB
:1011F00095058AE796E00E9495058AE696E00E94AA
:10120000950584E596E00E94950585E496E00E94A8
:1012100095056114710409F427CF0E94C104882345
:1012200009F422CF0E9400001BCF61E671E08EE33B
:1012300092E00E94C20C892B61F58EE396E00E9439
:10124000440580913C0281111BC08BE296E00E9414
:10125000950587E396E00E94440580913B02811149
:1012600012C08CE196E00E94950583E296E00E9410
:10127000440580913D02811109C085E196E0C7CF08
:1012800082E396E0E4CF8FE196E0EDCF89E196E04E
:10129000BECF46E050E068E671E08EE392E00E9447
:1012A000D20C892B09F066C080913D02882341F061
:1012B0008BEF95E00E94440584E492E00E94E505EE
:1012C00084E492E00E945E0C8C0186E392E00E942E
:1012D0005E0C6C0180913D02882339F080EE95E030
:1012E0000E944405C8010E940E060C151D0561F5FB
:1012F000F1E0F0933B028091320290913302A09191
:101300003402B09135020196A11DB11D80933202C5
:1013100090933302A0933402B09335022FB7F89420
:1013200080916F0290917002A0917102B09172024F
:101330002FBF80932E0290932F02A0933002B09380
:10134000310287ED95E063CF80912A0290912B02C4
:10135000A0912C02B0912D020196A11DB11D809388
:101360002A0290932B02A0932C02B0932D028AECB8
:1013700095E04DCF67E771E08EE392E00E94C20CEA
:10138000892B61F480913B02811103C08CEB95E0C5
:101390003ECF0E947F0580EB95E039CF6FE671E08C
:1013A0008EE392E00E94C20C892B49F40E947F05D3
:1013B0008FE995E00E94950583E995E028CF4BE001
:1013C00050E06CE771E08EE392E00E94D20C892B32
:1013D000A1F46FE471E089E492E00E94C20C892BD1
:1013E00019F08BE795E013CF0E947F0587E695E023
:1013F0000E9495058BE595E00ACF4CE050E068E847
:1014000071E08EE392E00E94D20C892B39F568E4FA
:1014100071E08AE492E00E94C20C892B19F088E402
:1014200095E0F5CE8091260290912702A0912802A6
:10143000B09129020196A11DB11D809326029093BF
:101440002702A0932802B09329020E947F0589E316
:1014500095E00E94950586E295E0D9CE65E971E0B8
:101460008EE392E00E94C20C892B49F58EE095E054
:101470000E94950587EF94E00E9444056091260242
:101480007091270280912802909129020E943E06C5
:1014900084EE94E00E94950588ED94E00E94950505
:1014A00082EC94E00E94950582EB94E00E94950501
:1014B00086E994E00E9495058EE794E0A8CE62EA62
:1014C00071E08EE392E00E94C20C892B79F4809146
:1014D0003B02811103C080E794E099CE10923C0258
:1014E00080E00E94EA0384E694E091CE68EA71E02D
:1014F0008EE392E00E94C20C892B69F410923B02A9
:1015000010922E0210922F0210923002109231028D
:1015100089E594E07CCE4BE050E06FEA71E08EE329
:1015200092E00E94D20C892BF9F480913B02811148
:1015300003C08BE494E06BCE89E492E00E94F50551
:10154000811107C08FE394E00E94950581E294E049
:101550005ECE69E472E086E392E00E94CB0C0E94CA
:10156000640685E194E053CE6BEB71E08EE392E08C
:101570000E94C20C892B11F563E471E086E392E0CE
:101580000E94CB0C0E94640610923B0210922E0225
:1015900010922F02109230021092310210923C02EF
:1015A00080E00E94EA038EEF93E00E94950589EEA9
:1015B00093E00E94950588ED93E029CE69EC71E0F7
:1015C0008EE392E00E94C20C892B09F047C083ECA5
:1015D00093E00E94950583EB93E00E94440580917F
:1015E0003B02811138C08CEA93E00E9495058091FE
:1015F0003B02882369F12FB7F89460916F027091D4
:10160000700280917102909172022FBF00912E02A0
:1016100010912F022091300230913102601B710B2A
:10162000820B930BA50194010E949A0C19012A01C7
:1016300086E993E00E944405C201B1010E943E0682
:101640008CE793E00E94950583E693E00E94950560
:101650008EE493E0DCCD8FEA93E0C7CF66ED71E0D6
:101660008EE392E00E94C20C892B79F58BE393E024
:101670000E94950589E293E00E94440560912A0248
:1016800070912B0280912C0290912D020E943E06B7
:1016900085E193E00E94440560913202709133022B
:1016A00080913402909135020E943E0684E093E0DE
:1016B0000E94950586EF92E00E94950587EE92E0E4
:1016C0000E94950584ED92E0A2CD61EE71E08EE37B
:1016D00092E00E94C20C892B31F421E020933D025C
:1016E00086EC92E094CD6AEE71E08EE392E00E9487
:1016F000C20C892B29F410923D0287EB92E087CD32
:1017000064EF71E08EE392E00E94C20C892B09F035
:101710003FC081EA92E00E94950588E992E00E942C
:10172000440587E391E00E94E5058DE892E00E9480
:10173000440588E291E00E94E50581E892E00E947C
:10174000440586E392E00E94E50583E692E00E946C
:10175000950589E492E00E9495058FE292E00E944F
:10176000950582E192E00E94950589EF91E00E9443
:1017700095058AEE91E00E94440588E491E00E947C
:10178000E50587EC91E00E94950581EB91E03FCD66
:1017900060E072E08EE392E00E94C20C892B09F0B7
:1017A0004FC084E991E00E9495058CE891E00E9489
:1017B000440587E391E00E94E50582E891E00E94FC
:1017C000440588E291E00E94E50586E791E00E94E9
:1017D000440582E191E00E94E50586E691E00E94E1
:1017E000440581E192E00E94E50586E591E00E94D2
:1017F00044058DE192E00E94E50581E491E00E94BC
:10180000440581E090E00E940E0682E391E00E9490
:10181000440588E491E00E94E50580E291E00E94A1
:1018200044058FE491E00E94E50581E091E00E948B
:10183000950584EE90E00E94950587EC90E0E7CC5A
:1018400087EB90E0E4CC8A30910509F458CCF6019E
:1018500081936F010F5F1F4F0F32110509F012CCFA
:101860004ECCE7E7F2E01382128288EE93E0A0E02C
:10187000B0E084839583A683B78384E091E091836D
:10188000808385EC90E09587848784EC90E097874F
:10189000868780EC90E0918B808B81EC90E0938B3D
:1018A000828B82EC90E0958B848B86EC90E0978B1A
:1018B000868B118E128E138E148E0895FC0188274C
:1018C0009927E89421912032E9F3293010F02E3045
:1018D000C8F32B3241F02D3239F4689404C00E94D1
:1018E0007C0C820F911D219120532A30C0F31EF4ED
:1018F000909581959F4F08957AE0979F902D879FAF
:10190000802D910D11240895F999FECF92BD81BDCE
:10191000F89A992780B50895262FF999FECF1FBA16
:1019200092BD81BD20BD0FB6F894FA9AF99A0FBE08
:1019300001960895A1E21A2EAA1BBB1BFD010DC042
:10194000AA1FBB1FEE1FFF1FA217B307E407F5076F
:1019500020F0A21BB30BE40BF50B661F771F881F4B
:10196000991F1A9469F760957095809590959B01E1
:10197000AC01BD01CF010895EE0FFF1F0590F4915A
:10198000E02D0994FB01DC018D910190801901107B
:10199000D9F3990B0895FB01DC0101900D92002011
:1019A000E1F70895FB01DC014150504030F08D918A
:1019B0000190801919F40020B9F7881B990B08953C
:1019C000F894FFCF00000000F704570484045F057B
:1019D000B5049304A7044E4C5F52454C4541534512
:1019E0005F44454255475F3230323600312E302E4B
:1019F000302D494E534543555245004E616E6F4C54
:101A00006F636B2D4E310031323334003438313551
:101A10003136004E414E4F2D37333931000D0A001B
:101A200048454C5000535441545553004C4F47497E
:101A30004E2000534552564943455F4F50454E0096
:101A40004D41494E545F4F50454E200052454D4F39
:101A500054455F4F50454E200052454D4F54455F11
:101A6000535441545300434C4F5345004C4F474F40
:101A70005554004348414E47455F50494E2000466B
:101A80004143544F52595F524553455400534553B7
:101A900053494F4E5F494E464F00415554485F539E
:101AA00054415453004445425547204F4E0044454D
:101AB000425547204F46460053484F575F434F4ECD
:101AC00046494700454E47494E454552494E475FB6
:101AD000494E464F00536570203136203230323641
:0A1AE0000032313A34313A3332005B
:107E0000112484B714BE81FFF0D085E080938100F7
:107E100082E08093C00088E18093C10086E0809377
:107E2000C20080E18093C4008EE0C9D0259A86E02C
:107E300020E33CEF91E0309385002093840096BBD3
:107E4000B09BFECF1D9AA8958150A9F7CC24DD24C4
:107E500088248394B5E0AB2EA1E19A2EF3E0BF2EE7
:107E6000A2D0813461F49FD0082FAFD0023811F036
:107E7000013811F484E001C083E08DD089C08234E0
:107E800011F484E103C0853419F485E0A6D080C0E4
:107E9000853579F488D0E82EFF2485D0082F10E0AE
:107EA000102F00270E291F29000F111F8ED06801E7
:107EB0006FC0863521F484E090D080E0DECF843638
:107EC00009F040C070D06FD0082F6DD080E0C81688
:107ED00080E7D80618F4F601B7BEE895C0E0D1E017
:107EE00062D089930C17E1F7F0E0CF16F0E7DF06D8
:107EF00018F0F601B7BEE89568D007B600FCFDCFD4
:107F0000A601A0E0B1E02C9130E011968C91119780
:107F100090E0982F8827822B932B1296FA010C0160
:107F200087BEE89511244E5F5F4FF1E0A038BF0790
:107F300051F7F601A7BEE89507B600FCFDCF97BE46
:107F4000E89526C08437B1F42ED02DD0F82E2BD052
:107F50003CD0F601EF2C8F010F5F1F4F84911BD097
:107F6000EA94F801C1F70894C11CD11CFA94CF0C13
:107F7000D11C0EC0853739F428D08EE10CD085E9AC
:107F80000AD08FE07ACF813511F488E018D01DD067
:107F900080E101D065CF982F8091C00085FFFCCF94
:107FA0009093C60008958091C00087FFFCCF809118
:107FB000C00084FD01C0A8958091C6000895E0E648
:107FC000F0E098E1908380830895EDDF803219F02E
:107FD00088E0F5DFFFCF84E1DECF1F93182FE3DFCA
:107FE0001150E9F7F2DF1F91089580E0E8DFEE27F6
:047FF000FF270994CA
:027FFE00040479
:00000001FF
